S01300005043496E746572666163652E73726563ED
S11300000C9473000C94A6000C94A6000C946D013F
S11300100C9497010C94A6000C94A6000C94A600D2
S11300200C94A6000C94A6000C94A6000C94A600B4
S11300300C94A6000C94A6000C94A6000C94150233
S11300400C94A6000C94A6000C94A6000C94A60094
S11300500C94A6000C94A6000C94A6000C94C10168
S11300600C94A6000C9443010C94A6000C94A600D6
S11300700C94A6000C94A6000C94A6000C94A60064
S11300800C94A6000C94A6000C94A6000C94EB010E
S11300900C94A6000C94A6000C94A6000C94A60044
S11300A00C94A6000C94A6000C94A6000C94A60034
S11300B00C94A6000C94A6000C94A6000C94A60024
S11300C00C94A6000C94A6000C94A6000C94A60014
S11300D00C94A6000C94A6000C94A6000C94A60004
S11300E00C94A6003F0211241FBECFEFD1E2DEBF65
S11300F0CDBF00E00CBF12E0A0E0B2E0ECE2F3E31D
S113010000E00BBF02C007900D92A030B107D9F7F1
S11301101BBE12E0A0E0B2E001C01D92A333B10700
S1130120E1F710E0C6EED0E000E006C02297010936
S1130130FE010BBF0E944B19C43ED10780E00807A3
S1130140A9F71BBE0E94F2000C9494190C940000B1
S11301506623F1F081E04039580739F481E0809357
S1130160B90083E08093B80010C04436510539F4D7
S113017081E08093B90082E18093B80006C083E0F7
S11301808093B90084E18093B80084E08093BC003C
S1130190089584EA8093BC00ECEBF0E0808188232E
S11301A0ECF7089584E98093BC0008956093BB0044
S11301B084E88093BC00ECEBF0E080818823ECF7CA
S11301C00895662321F484EC8093BC0003C084E882
S11301D08093BC00ECEBF0E080818823ECF7809105
S11301E0BB000895CF93DF93CDB7DEB7C050D240A4
S11301F00FB6F894DEBF0FBECDBF8FE292E00E942F
S1130200DB070F2EFDE2CF2EF2E0DF2EF02DC6012C
S113021065E146E020E102E00E94C305C60169E011
S113022040E020E00E940606FE01319680E092E064
S1130230DF019C011D9221503040E1F7CC24DD24E4
S113024076010FE212E0C801B701A6019E012F5FFB
S11302503F4F0E94EB0989EF90E00197F1F700C04E
S113026000000894C11CD11CE11CF11C95E6C916C0
S1130270D104E104F10439F7789401E012E0C801F3
S11302800E945605FCCF1F920F920FB60F920BB629
S11302900F9211242F933F934F935F936F937F9308
S11302A08F939F93AF93BF93EF93FF9381E092E07B
S11302B00E941A03FF91EF91BF91AF919F918F918B
S11302C07F916F915F914F913F912F910F900BBE52
S11302D00F900FBE0F901F9018951F920F920FB69C
S11302E00F920BB60F9211242F933F934F935F936A
S11302F06F937F938F939F93AF93BF93EF93FF93EA
S11303008FE092E00E94E214FF91EF91BF91AF91D0
S11303109F918F917F916F915F914F913F912F9119
S11303200F900BBE0F900FBE0F901F9018951F9249
S11303300F920FB60F920BB60F9211242F933F9387
S11303404F935F936F937F938F939F93AF93BF93D9
S1130350EF93FF938FE092E00E94FC14FF91EF91E2
S1130360BF91AF919F918F917F916F915F914F91C9
S11303703F912F910F900BBE0F900FBE0F901F90C7
S113038018951F920F920FB60F920BB60F9211246D
S11303902F933F934F935F936F937F938F939F9389
S11303A0AF93BF93EF93FF938FE092E00E941615F3
S11303B0FF91EF91BF91AF919F918F917F916F9139
S11303C05F914F913F912F910F900BBE0F900FBEF5
S11303D00F901F9018951F920F920FB60F920BB6A5
S11303E00F9211242F933F934F935F936F937F93B7
S11303F08F939F93AF93BF93EF93FF938FE092E01C
S11304000E941A15FF91EF91BF91AF919F918F9127
S11304107F916F915F914F913F912F910F900BBE00
S11304200F900FBE0F901F9018951F920F920FB64A
S11304300F920BB60F9211242F933F934F935F9318
S11304406F937F938F939F93AF93BF93EF93FF9398
S11304508FE092E00E941F15FF91EF91BF91AF9141
S11304609F918F917F916F915F914F913F912F91C8
S11304700F900BBE0F900FBE0F901F901895CF9248
S1130480DF92EF92FF920F931F93CF93DF930F2E80
S1130490F2E3CF2EF2E0DF2EF02DC60140E051EE64
S11304A060E070E028E005E40E94EF0A0FE212E049
S11304B0C80160EA7FE00E9486070F2EFDE2EF2E5E
S11304C0F2E0FF2EF02DC70160ED40E951E00E94FB
S11304D07E05CAE2D2E0CE01B8010E94910B0FE082
S11304E012E0C80160E040E00E949A1381E092E0CB
S11304F0BE01A60197010E948602DF91CF911F9150
S11305000F91FF90EF90DF90CF9008950F931F937A
S1130510FC0156834583328321837483638310876C
S11305200783158614861F910F9108950F931F93C7
S1130530CF93DF93EC018B018D819E810E94460B4A
S1130540F80180838D819E810E94460BF80181838E
S11305509081903F29F491E0803F19F090E001C030
S113056090E0892FDF91CF911F910F910895CF9340
S1130570DF93EC010E949602882349F08D819E81CD
S11305800E94460B982F91509A3018F001C001C078
S113059080E0DF91CF910895BF92CF92DF92EF92E6
S11305A0FF920F931F93CF93DF936C017B01FB01A9
S11305B080E090E01192019622E080309207D1F71A
S11305C0C0E0D0E000E010E00F2EFFE0BF2EF02DE1
S11305D0F601858196810E94460B8F30B1F4F601B5
S11305E0858196810E94460B8F3019F4802F912FBC
S11305F017C0F701EC0FFD1FB0822196F701EC0F35
S1130600FD1F80830E5F1F4F06C0F701EC0FFD1F17
S113061080830F5F1F4F2196F2E0C030DF07C4F2E2
S1130620DF91CF911F910F91FF90EF90DF90CF90CA
S1130630BF9008955F926F927F928F929F92AF9234
S1130640BF92CF92DF92EF92FF920F931F93CF93BB
S1130650DF93CDB7DEB7C250D6400FB6F894DEBFF5
S11306600FBECDBF6C0111B88E010D5F1B4F0F2E55
S1130670F3E0EF2EF6E0FF2EF02DEC0EFD1EF80158
S11306801192EE15FF05E1F7C601BE016F5F7F4FC2
S11306900E94B702863009F458C0873070F4823063
S11306A011F1833020F4813009F0E9C113C08330A3
S11306B011F1853009F0E3C12EC0883009F40FC16F
S11306C0883008F4D4C0893009F43DC18A3009F077
S11306D0D6C177C181E0F6018083858196816FE080
S11306E00E944E0BCCC1F6011082858196816FE089
S11306F00E944E0BC4C1009907C0F6018581968102
S113070061E00E944E0BBBC1F6018581968160E0D9
S11307100E944E0BB4C1C601BE016D5F7B4F0E94A7
S1130720CC028130910551F4CD5FDB4F8881C350F9
S1130730D440F601828781E08187A1C1F6018581D9
S1130740968160E00E944E0B9AC1F60183819481E8
S11307500E949713882389F4C95FDB4F1882C7501E
S1130760D440F80161918F01F601858196810E9440
S11307704E0BE016F106A9F782C1F60194859F5F3E
S113078094872585821708F463C0892F90E04C0173
S11307900894811C911C55246624772454010894E0
S11307A0A108B108F60183819481BE016D5F7D4F7C
S11307B00E94960B930116C020FF14C0E3E0F2E000
S11307C0EC0FFD1FE20FF31F808190E08A159B055B
S11307D049F42150E3E0F2E0EC0FFD1FE20FF11DBC
S11307E0508006C02F5F3F4FF2E020303F0721F7D3
S11307F0F6018485581640F40894811C911CF1E09C
S11308008F16F1E09F0651F6AA24A394802E612E40
S1130810F601838194816A2D452D9E012D5F3B4F06
S11308200E940612082D162DF80161918F01F60120
S1130830858196810E944E0BE016F106A9F7A394D8
S1130840F8E0AF1629F7F60185858F5F858717C114
S113085004E010E0F601858196816AEF0E944E0B58
S1130860F6011486158601501040A1F708C1C6018F
S1130870BE016D5F7B4F0E94CC028230910519F559
S1130880CC5FDB4F4881C450D440442359F4F60173
S113089083819481CD5FDB4F6881C350D4400E9433
S11308A0FA0C0AC0F60183819481CD5FDB4F688125
S11308B0C350D4400E94330FF601858196816FE0C6
S11308C00E944E0BDCC004E010E0F60185819681A5
S11308D06AEF0E944E0B01501040B9F7D0C0C60118
S11308E0BE016D5F7B4F0E94CC0281309105F9F40B
S11308F0F60183819481CD5FDB4F6881C350D4407E
S11309000E94BE0D882339F0F601858196816FE03F
S11309100E944E0BB4C004E010E0F601858196817C
S11309206AEF0E944E0B01501040B9F7A8C004E0D2
S113093010E0F601858196816AEF0E944E0B01500A
S11309401040B9F79CC0C601BE016D5F7B4F0E9489
S1130950CC028330910549F5F60183819481CD5F02
S1130960DB4F6881C350D440CC5FDB4F4881C45017
S1130970D440CB5FDB4F2881C550D4400E948F12F6
S1130980882339F0F6018581968160EF0E944E0B31
S113099076C004E010E0F601858196816AEF0E943A
S11309A04E0B01501040B9F76AC004E010E0F601A4
S11309B0858196816AEF0E944E0B01501040B9F771
S11309C05EC0F601858196816FE00E944E0BC601E0
S11309D0BE016D5F7B4F0E94CC02282F392F24303B
S11309E031050CF441C0FE013396CE018D5F9D4F5D
S11309F01192E817F907E1F712161306BCF480E028
S1130A0090E0181619061CF4582F5F5F01C0582F88
S1130A10F80141918F01E3E0F0E0EC0FFD1FE50FD9
S1130A20F11D408301962817390759F7F601838190
S1130A3094816B81AE014D5F5F4F0E947A118823D0
S1130A4039F0F601858196816FE00E944E0B17C044
S1130A5004E010E0F601858196816BEF0E944E0B55
S1130A6001501040B9F70BC004E010E0F601858195
S1130A7096816AEF0E944E0B01501040B9F7CE5F89
S1130A80D94F0FB6F894DEBF0FBECDBFDF91CF9123
S1130A901F910F91FF90EF90DF90CF90BF90AF9098
S1130AA09F908F907F906F905F900895CF93DF9386
S1130AB0EC0189858823F9F0AE01455F5F4F8F8192
S1130AC098856A850E94B213882379F08B858823E0
S1130AD031F08D819E8161E00E944E0B0BC08D81AF
S1130AE09E8160E00E944E0B05C08D819E816AEF5D
S1130AF00E944E0B1986DF91CF9108951F93CF93D7
S1130B00DF93EC01162F019661E00E94A800188380
S1130B10DF91CF911F9108950F931F93CF93DF938C
S1130B208C01EC012196CE010E94C900F80160817C
S1130B306E7FCE010E94D600CE0163E00E94D600F3
S1130B40CE010E94D200CE010E94C900F80160814A
S1130B506160CE010E94D600CE0161E00E94E100F6
S1130B60082FCE010E94D200802F90E0DF91CF9118
S1130B701F910F910895862F6AE00E941D19829596
S1130B80807F890F0895CF92DF92EF92FF920F93A7
S1130B901F93CF93DF937C01162FD42EC22EEC012A
S1130BA02196CE010E94C900F70160816E7FCE01BB
S1130BB00E94D600CE0163E00E94D600CE01602FD1
S1130BC00E94D600C701612F0E94BB05682FCE0189
S1130BD00E94D600C7016D2D0E94BB05682FCE016F
S1130BE00E94D600C7016C2D0E94BB05682FCE0160
S1130BF00E94D600CE010E94D200DF91CF911F91B6
S1130C000F91FF90EF90DF90CF900895DF92EF92D5
S1130C10FF920F931F93CF93DF938C01F62ED42E64
S1130C20E22EEC012196CE010E94C900F8016081F8
S1130C306E7FCE010E94D600CE0160E00E94D600F5
S1130C40C8016E2D0E94BB05682FCE010E94D600FC
S1130C50C8016D2D0E94BB05682FCE010E94D600ED
S1130C60C8016F2D0E94BB05682F6064CE010E94ED
S1130C70D600CE010E94D200DF91CF911F910F9137
S1130C80FF90EF90DF900895262F2F7062956F707C
S1130C90660F862F880F880F680F862F90E0820FCB
S1130CA0911D0895FF920F931F93CF93DF938C01AF
S1130CB0EC012196CE010E94C900F80160816E7F8B
S1130CC0CE010E94D600CE0166E00E94D600CE017D
S1130CD00E94D200CE010E94C900F80160816160C7
S1130CE0CE010E94D600CE0161E00E94E100F82E00
S1130CF0CE010E94D200C8016F2D0E944406DF91EC
S1130D00CF911F910F91FF900895FF920F931F931E
S1130D10CF93DF938C01EC012196CE010E94C90090
S1130D20F80160816E7FCE010E94D600CE0165E09D
S1130D300E94D600CE010E94D200CE010E94C900BA
S1130D40F80160816160CE010E94D600CE0161E0AD
S1130D500E94E100F82ECE010E94D200C8016F2D3E
S1130D600E944406DF91CF911F910F91FF90089547
S1130D70FF920F931F93CF93DF938C01EC01219685
S1130D80CE010E94C900F80160816E7FCE010E94ED
S1130D90D600CE0164E00E94D600CE010E94D200AB
S1130DA0CE010E94C900F80160816160CE010E94F9
S1130DB0D600CE0161E00E94E100F82ECE010E942F
S1130DC0D200C8016F2D0E944406DF91CF911F917C
S1130DD00F91FF900895FF920F931F93CF93DF938A
S1130DE08C01EC012196CE010E94C900F8016081BA
S1130DF06E7FCE010E94D600CE0160E00E94D60034
S1130E00CE010E94D200CE010E94C900F801608187
S1130E106160CE010E94D600CE0161E00E94E10033
S1130E20F82ECE010E94D200C8016F2D0E94440604
S1130E30DF91CF911F910F91FF900895FF920F932F
S1130E401F93CF93DF938C01EC012196CE010E9476
S1130E50C900F80160816E7FCE010E94D600CE01E8
S1130E6061E00E94D600CE010E94D200CE010E9411
S1130E70C900F80160816160CE010E94D600CE01F4
S1130E8061E00E94E100F82ECE010E94D200C80168
S1130E906F2D0E944406DF91CF911F910F91FF9017
S1130EA00895EF92FF920F931F93CF937C018C01CF
S1130EB00F5F1F4FC8010E94C900F70160816E7F58
S1130EC0C8010E94D600C80162E00E94D600C80191
S1130ED00E94D200C8010E94C900F70160816160CC
S1130EE0C8010E94D600C80161E00E94E100C82F39
S1130EF0C8010E94D2006C2F6F7BC7010E94440678
S1130F00CF911F910F91FF90EF9008950F931F932E
S1130F10CF93DF93EC018B016DE770E00E94DB0A55
S1130F201A830983DF91CF911F910F910895EF9256
S1130F30FF920F931F93CF93DF9300D00F92CDB7FF
S1130F40DEB7182FE92EF62E29833A834B835C8370
S1130F506FEF0E94E20A6F2D6064812F9E2D0E9424
S1130F60E20A812F9E2D69810E94E20A812F9E2D23
S1130F706A810E94E20A812F9E2D6C810E94E20AFE
S1130F80812F9E2D6D810E94E20A812F9E2D602F5C
S1130F900E94E20A0F900F900F900F90DF91CF9173
S1130FA01F910F91FF90EF9008950E94E80A089511
S1130FB00E94E20A0895AF92BF92CF92DF92EF921D
S1130FC0FF920F931F93CF93DF9300D00F920F9252
S1130FD0CDB7DEB7B82EA92E83EF91E00197F1F7D4
S1130FE000C0000083B1816085B9CB2CDA2C8B2D35
S1130FF09A2D6DE770E00E94B30AE3EFF1E03197B8
S1131000F1F700C000008B2D9A2D6FEF0E94E20AC9
S11310108B2D9A2D6FEF0E94E20A8B2D9A2D6FEF84
S11310200E94E20A8B2D9A2D6FEF0E94E20A8B2D0B
S11310309A2D6FEF0E94E20A8B2D9A2D6FEF0E947A
S1131040E20A8B2D9A2D6FEF0E94E20A8B2D9A2DC6
S11310506FEF0E94E20A8B2D9A2D6FEF0E94E20A35
S11310608B2D9A2D6FEF0E94E20A83B18E7F85B992
S11310708C2D9D2D6FEF0E94E20A8C2D9D2D60E436
S11310800E94E20A8C2D9D2D60E00E94E20A8C2DC4
S11310909D2D60E00E94E20A8C2D9D2D60E00E944F
S11310A0E20A8C2D9D2D60E00E94E20A8C2D9D2D7C
S11310B065E90E94E20A8C2D9D2D0E94E80A8C2D80
S11310C09D2D0E94E80A8F3F81F2813009F0EEC025
S11310D08B2D9A2D6FEF0E94E20A8B2D9A2D68E4D6
S11310E00E94E20A8B2D9A2D60E00E94E20A8B2D69
S11310F09A2D60E00E94E20A8B2D9A2D61E00E94F5
S1131100E20A8B2D9A2D6AEA0E94E20A8B2D9A2D0F
S113111067E80E94E20A8B2D9A2D0E94E80A8E014C
S11311200F5F1F4F0F2EF6E0EF2EFF24F02DEC0E75
S1131130FD1E8C2D9D2D0E94E80AF80181938F01DC
S1131140EE15FF05B1F78981813009F0B1C08A81BC
S1131150882309F0AFC08B81882309F0ADC08C814E
S1131160813009F0ABC08D818A3A09F0A9C08C2D79
S11311709D2D6FEF0E94E20A8C2D9D2D67E70E9442
S1131180E20A8C2D9D2D60E00E94E20A8C2D9D2D9B
S113119060E00E94E20A8C2D9D2D60E00E94E20A2C
S11311A08C2D9D2D60E00E94E20A8C2D9D2D6FEF09
S11311B00E94E20A8C2D9D2D0E94E80A8C2D9D2D03
S11311C00E94E80A8C2D9D2D6FEF0E94E20A8C2D5F
S11311D09D2D69E60E94E20A8C2D9D2D60E40E94FB
S11311E0E20A8C2D9D2D60E00E94E20A8C2D9D2D3B
S11311F060E00E94E20A8C2D9D2D60E00E94E20ACC
S11312008C2D9D2D6FEF0E94E20A8C2D9D2D0E9446
S1131210E80A8C2D9D2D0E94E80A882309F0A7CFA7
S11312208B2D9A2D6FEF0E94E20A8B2D9A2D6AE77F
S11312300E94E20A8B2D9A2D60E00E94E20A8B2D17
S11312409A2D60E00E94E20A8B2D9A2D60E00E94A4
S1131250E20A8B2D9A2D60E00E94E20A8B2D9A2DD2
S11312606FEF0E94E20A8B2D9A2D0E94E80A8B2DC3
S11312709A2D0E94E80A8B2D9A2D0E94E80A082FC5
S11312808B2D9A2D0E94E80A8B2D9A2D0E94E80A34
S11312908B2D9A2D0E94E80A06FF14C08B2D9A2DDF
S11312A060EA7FE00E94B30A81E00DC080E00BC0D9
S11312B080E009C080E007C080E005C080E003C092
S11312C080E001C080E00F900F900F900F900F907E
S11312D0DF91CF911F910F91FF90EF90DF90CF900E
S11312E0BF90AF900895AF92BF92CF92DF92EF92EA
S11312F0FF920F931F93CF93DF9300D00F92CDB73C
S1131300DEB7B82EA92E49835A836B837C83022FC0
S1131310132FC82ED92E6FEF0E94E20A8B2D9A2D1F
S113132061E50E94E20A8B2D9A2D6C810E94E20AEB
S11313308B2D9A2D6B810E94E20A8B2D9A2D6A8146
S11313400E94E20A8B2D9A2D69810E94E20A8B2D5C
S11313509A2D6FEF0E94E20A8B2D9A2D0E94E80AC3
S11313608B2D9A2D0E94E80A882319F58C2D9D2D2A
S11313700E94E80A8F3FD1F38E3FE9F4E02EF12E6C
S113138000E010E08C2D9D2D0E94E80AF701819366
S11313907F010F5F1F4FF2E000301F0799F78B2D7D
S11313A09A2D0E94E80A8B2D9A2D0E94E80A81E06A
S11313B003C080E001C080E00F900F900F900F9069
S11313C0DF91CF911F910F91FF90EF90DF90CF901D
S11313D0BF90AF900895AF92BF92CF92DF92EF92F9
S11313E0FF920F931F93CF93DF9300D00F92CDB74B
S11313F0DEB7B82EA92E49835A836B837C83022FD0
S1131400132FC82ED92E6FEF0E94E20A8B2D9A2D2E
S113141068E50E94E20A8B2D9A2D6C810E94E20AF3
S11314208B2D9A2D6B810E94E20A8B2D9A2D6A8155
S11314300E94E20A8B2D9A2D69810E94E20A8B2D6B
S11314409A2D6FEF0E94E20A8B2D9A2D0E94E80AD2
S11314508B2D9A2D0E94E80A882309F070C08B2DE9
S11314609A2D6FEF0E94E20A8B2D9A2D6EEF0E9447
S1131470E20AE02EF12E00E010E0F70161917F0115
S11314808C2D9D2D0E94E20A0F5F1F4FF2E0003069
S11314901F0799F78B2D9A2D6FEF0E94E20A8B2D6F
S11314A09A2D6FEF0E94E20A8C2D9D2D0E94E80A6E
S11314B08823D1F3853E09F044C08B2D9A2D0E94D8
S11314C0E80A8C2D9D2D0E94E80A8F3FD1F78B2DC1
S11314D09A2D6FEF0E94E20A8B2D9A2D6DE40E94E3
S11314E0E20A8B2D9A2D60E00E94E20A8B2D9A2D40
S11314F060E00E94E20A8B2D9A2D60E00E94E20ACD
S11315008B2D9A2D60E00E94E20A8B2D9A2D6FEFAD
S11315100E94E20A8B2D9A2D0E94E80A8B2D9A2DA7
S11315200E94E80A182F8B2D9A2D0E94E80A982F02
S1131530112349F481E0992339F080E005C080E06B
S113154003C080E001C080E00F900F900F900F90D7
S1131550DF91CF911F910F91FF90EF90DF90CF908B
S1131560BF90AF9008956A3F7105C1F06B3F71055C
S113157024F46D377105D9F416C083E0683E78070A
S113158041F08FE0603A780791F48CB58C7F8CBD84
S113159008958CB58C7F81608CBD08958CB58C7F4B
S11315A082608CBD08958CB583608CBD08958CB524
S11315B08C7F8CBD089527E024B920E52CBD0E94C2
S11315C0B30A08956EBD0DB407FEFDCF8EB5089520
S11315D08FEF8EBD0DB407FEFDCF8EB508950F932A
S11315E0DB01CA018E569040A040B040833931ECF3
S11315F0930731E0A30730E0B30798F5293088F565
S1131600253078F180E28093C00088E98093C1009E
S11316102550220F2093C200440F551F661F771FC9
S1131620440F551F661F771F9A01AB01220F331F0A
S1131630441F551F220F331F441F551F60E074E2DF
S113164084EF90E00E942919DA01C9010197A109E8
S1131650B1098093C400892F9A2FAB2FBB278093A5
S1131660C500053431F4E2ECF0E0808180628083CF
S113167007C00F3429F4E2ECF0E0808180638083BA
S11316800F9108958091C00080780895E0ECF0E017
S113169080818823ECF78091C6000895E0ECF0E0A7
S11316A0808185FFFDCF6093C60008950F931F933B
S11316B0CF93DF938C01EB016881662339F0219687
S11316C0C8010E944E0B69916623D1F7DF91CF9137
S11316D01F910F9108950F931F93CF93DF93CDB76D
S11316E0DEB727970FB6F894DEBF0FBECDBF8C01CF
S11316F0CB01BE016F5F7F4F4AE050E00E944F195B
S1131700C801BE016F5F7F4F0E94560B27960FB62C
S1131710F894DEBF0FBECDBFDF91CF911F910F9123
S11317200895FC0171836083128208959B01FC017A
S11317308081918140E050E0BA010E9473090895CC
S11317400F931F93CF93DF93CDB7DEB7C050D24032
S11317500FB6F894DEBF0FBECDBF8C01BE016F5F24
S11317607F4F0E94960B80E090E00FC080FF0DC079
S1131770E1E0F0E0EC0FFD1FE80FF91FD80112962D
S11317803C9112972081321739F00196B2E08030F3
S11317909B0761F781E001C080E0C050DE4F0FB6C7
S11317A0F894DEBF0FBECDBFDF91CF911F910F9193
S11317B00895EF92FF920F931F93CF93DF93CDB7CA
S11317C0DEB7C050D2400FB6F894DEBF0FBECDBF17
S11317D08C01F62EE42EBE016F5F7F4F0E94960BA4
S11317E0FE01319680E090E02191222341F00196A0
S11317F022E080309207C1F780E090E002C00097B9
S113180019F429812223B9F4E1E0F0E0EC0FFD1F83
S1131810E80FF91FF0828C0F9D1FFC01E282F80192
S11318208081918140E050E0BA019E012F5F3F4FDB
S11318300E94EB0901C080E0C050DE4F0FB6F8945F
S1131840DEBF0FBECDBFDF91CF911F910F91FF90EF
S1131850EF900895DF92EF92FF920F931F93CF932F
S1131860DF93CDB7DEB7C050D4400FB6F894DEBFD7
S11318700FBECDBF7C01162FBE016F5F7D4F80E090
S113188092E0FB019C01119221503040E1F7C70125
S11318900E94960B60E070E060FD09C0E1E0F2E0B8
S11318A0EC0FFD1FE60FF71F8081811739F06F5F82
S11318B07F4F32E06030730779F760E0AE014F5F2D
S11318C05F4F80E092E0FA019C0111922150304078
S11318D0E1F7DE01AF5FBD4F22E030E080E090E051
S11318E070E011E000E0E1E02F3F3E07E4F4E12F77
S11318F06817790709F0E02FEE2339F4E12F681710
S113190079070CF0E02FEE2351F0E1E0F2E0EC0F68
S1131910FD1FE20FF31FD080FA01D08205C0DC90D6
S1131920FA01D08201C01C9201962F5F3F4F11969D
S11319304F5F5F4FF2E080309F07A9F6F701808187
S1131940918140E050E0BA019E012F5F3F4F0E9419
S1131950EB09C050DC4F0FB6F894DEBF0FBECDBF0D
S1131960DF91CF911F910F91FF90EF90DF90089539
S11319700F931F93CF93DF93CDB7DEB7C050D24000
S11319800FB6F894DEBF0FBECDBF8C01BE016F5FF2
S11319907F4F0E94960BF80162816623D1F41EC02A
S11319A020FF0DC0E1E0F0E0EC0FFD1FE20FF31F9C
S11319B09081981751F0F1E02F3F3F0779F02F5FA6
S11319C03F4F92E02030390759F78F5F681720F4B2
S11319D005C081E041E050E09A01E2CFC050DE4F03
S11319E00FB6F894DEBF0FBECDBFDF91CF911F912C
S11319F00F910895BF92CF92DF92EF92FF920F93CF
S1131A001F93CF93DF93CDB7DEB7C050D2400FB64C
S1131A10F894DEBF0FBECDBF6C01E62EDC0112963A
S1131A208C9112978F5F12968C93C6010E94A00B23
S1131A30882309F446C0FE01319680E092E0DF017C
S1131A409C011D9221503040E1F7E982D6011296A3
S1131A508C918A8301E010E00C83F601828190E08E
S1131A600197AC01440F551F440F551F440F551FD8
S1131A70481B590B400F511F4F5F5F4F662757FD9F
S1131A806095762F808191819E012F5F3F4F0E9448
S1131A90EB09882351F4D60112968C911297815048
S1131AA012968C93129780E04DC00F5F1F4F083041
S1131AB0110591F6C6016E2DF60142810E94D90BE3
S1131AC041C0C6010E94B80CB82EFE01319680E0D8
S1131AD092E0DF019C011D9221503040E1F7E98240
S1131AE0BA828B2D90E001978C01000F111F000F1B
S1131AF0111F000F111F081B190B0E5F1F4FFF242E
S1131B00F394FC82A801662757FD6095762FD601D1
S1131B108D919C919E012F5F3F4F0E94EB0988237A
S1131B2031F4F60182818150828380E00BC0F3940A
S1131B300F5F1F4FF8E0FF1621F7C6016E2D4B2DE6
S1131B400E94D90BC050DE4F0FB6F894DEBF0FBE13
S1131B50CDBFDF91CF911F910F91FF90EF90DF9058
S1131B60CF90BF9008959B01FC018081918141E059
S1131B7050E060E070E00E9473090895CF92DF9214
S1131B80EF92FF920F931F93CF93DF93CDB7DEB7FE
S1131B90C050D8400FB6F894DEBF0FBECDBF6C0165
S1131BA0F62E80E092E0FE01EF5FF94FDF019C0129
S1131BB01D9221503040E1F7BE016F5F7B4FDB0186
S1131BC0FC011D923197E9F7FE01EF5FFD4FDF0144
S1131BD09C011D9221503040E1F7C6010E94960BF2
S1131BE08F2D8150382F330F330F330F381B80E084
S1131BF090E03E5F0CC080FF0AC0E1E0F4E0EC0F2F
S1131C00FD1FE80FF91F20812F1509F4E32E01961B
S1131C10A2E080309A0779F74E2D50E060E070E042
S1131C20F601808191819E012F5F3D4F0E947309CF
S1131C30CD5FDD4F8881C350D240882311F400E08A
S1131C403DC0BE016F5F7F4F80E092E0DB01FC018D
S1131C501D923197E9F7C6010E94B30D00E010E030
S1131C6000FD25C0E1E0F0E0EC0FFD1FE00FF11FE7
S1131C709081CD5FDD4F8881C350D2409817B9F46D
S1131C80802F8F5FE1E0F0E0EC0FFD1FE80FF11D06
S1131C90808181508083D6018D919C9141E050E0F8
S1131CA060E070E09E012F5F3F4F0E94EB090F5FE1
S1131CB01F4FB2E000301B0799F6C1CF402F4E0DE5
S1131CC050E060E070E0F601808191819E012F5F19
S1131CD0394F0E94EB09882379F00F5F073071F7C1
S1131CE0D60112968C911297815012968C93C6014C
S1131CF06F2D0E942A0C01C080E0C050D84F0FB64F
S1131D00F894DEBF0FBECDBFDF91CF911F910F912D
S1131D10FF90EF90DF90CF900895FF920F931F9361
S1131D20CF93DF93CDB7DEB7C050D2400FB6F8944F
S1131D30DEBF0FBECDBF8C01F62EBE016F5F7F4F9D
S1131D4080E092E0FB019C01119221503040E1F7C8
S1131D50C8010E94B30D80E090E080FD09C0E1E07D
S1131D60F0E0EC0FFD1FE80FF91F2081222341F062
S1131D70019632E08030930781F780E090E002C062
S1131D80009719F429812223A9F4E1E0F0E0EC0F93
S1131D90FD1F8E0F9F1FFC01F082F801808191814D
S1131DA041E050E060E070E09E012F5F3F4F0E94F1
S1131DB0EB0901C080E0C050DE4F0FB6F894DEBFDF
S1131DC00FBECDBFDF91CF911F910F91FF9008956A
S1131DD0EF92FF921F93CF93DF93CDB7DEB7C0503E
S1131DE0D2400FB6F894DEBF0FBECDBF7C01162FD4
S1131DF0BE016F5F7F4F0E94B30D80E090E080FDD5
S1131E0014C0E1E0F0E0EC0FFD1FE80FF91F2081A2
S1131E10211759F4282F2F5FE1E0F0E0EC0FFD1FAC
S1131E20E20FF11D20812F5F2083019622E0803094
S1131E30920729F7F7018081918141E050E060E049
S1131E4070E09E012F5F3F4F0E94EB09C050DE4FB0
S1131E500FB6F894DEBF0FBECDBFDF91CF911F91B7
S1131E60FF90EF900895AF92BF92CF92DF92EF92DE
S1131E70FF920F931F93CF93DF93CDB7DEB7C0507C
S1131E80D2400FB6F894DEBF0FBECDBF6C01B62EA4
S1131E90E42EDC0112968C9112978F5F12968C932C
S1131EA0C6010E94A00B882309F44EC0FE0131969E
S1131EB080E092E0DF019C011D9221503040E1F767
S1131EC0B982D60112968C918A83EB8201E010E0EC
S1131ED00C83F601828190E00197AC01440F551FF9
S1131EE0440F551F440F551F481B590B400F511FDA
S1131EF04F5F5F4F662757FD6095762F80819181F4
S1131F009E012F5F3F4F0E94EB09882351F4D601B5
S1131F1012968C911297815012968C93129780E0AE
S1131F205FC00F5F1F4F0830110591F6C6016E2D7B
S1131F300E94E80E882309F450C0C6016B2DF601F7
S1131F4042810E94D90B4CC0C6010E94B80CA82E35
S1131F50FE01319680E092E0DF019C011D92215048
S1131F603040E1F7B982AA82EB828A2D90E0019792
S1131F708C01000F111F000F111F000F111F081BF0
S1131F80190B0E5F1F4FFF24F394FC82A8016627F0
S1131F9057FD6095762FD6018D919C919E012F5F00
S1131FA03F4F0E94EB09882331F4F601828181506E
S1131FB0828380E015C0F3940F5F1F4FF8E0FF1693
S1131FC021F7C6016E2D0E94E80E882341F0C60158
S1131FD06B2D4A2D0E94D90B03C080E001C080E024
S1131FE0C050DE4F0FB6F894DEBF0FBECDBFDF91F9
S1131FF0CF911F910F91FF90EF90DF90CF90BF9002
S1132000AF9008958F929F92AF92BF92CF92DF923A
S1132010EF92FF920F931F93CF93DF93CDB7DEB769
S1132020C050D6400FB6F894DEBF0FBECDBF5C01E2
S1132030C62E042FBE016F5F7B4F80E092E0DB0170
S1132040FC011D923197E9F7C5010E94B30D80E0B0
S113205090E080FD12C0E1E0F4E0EC0FFD1FE80F1A
S1132060F91F2081201749F48C0F9D1FFC01EE5F9E
S1132070FB4F80818150808305C00196F2E080305F
S11320809F0739F7D5018D919C9141E050E060E0C4
S113209070E09E012F5F3B4F0E94EB09882309F4F7
S11320A05CC0BE016F5F7D4F80E092E0FB019C014C
S11320B0119221503040E1F7C5010E94960B80E057
S11320C090E080FD13C0E1E0F2E0EC0FFD1FE80FAB
S11320D0F91F20812C1551F481818150882E880CA0
S11320E0880C880C881A282D2E5F06C00196B2E051
S11320F080309B0731F720E0FE01319680E092E0CA
S1132100DF01AC011D9241505040E1F700E010E0C6
S1132110822E99246801C80CD91CEE24D7FCE094C3
S1132120FE2CD5018D919C91B701A6019E012F5FD4
S11321303F4F0E9473091B82F50180819181B70191
S1132140A6019E012F5F3F4F0E94EB090F5F1F4FB7
S113215007301105F9F681E001C080E0C050DA4F84
S11321600FB6F894DEBF0FBECDBFDF91CF911F91A4
S11321700F91FF90EF90DF90CF90BF90AF909F9022
S11321808F900895AF92BF92CF92DF92EF92FF9219
S11321900F931F93CF93DF93CDB7DEB7C050D440D6
S11321A00FB6F894DEBF0FBECDBF7C01D62EBE01A4
S11321B06F5F7D4F80E092E0DB01FC011D9231975F
S11321C0E9F7C7010E94B30DE0E0F0E0E0FD31C0A3
S11321D0A1E0B2E0AC0FBD1FAE0FBF1F8C91D816AB
S11321E041F5DE01AE0FBF1FAE5FBD4FCC901C9218
S11321F0CF01029622E0803092070CF079C09F0153
S11322002D5F3F4F41E052E04C0F5D1FE40FF51F7F
S1132210A1E0B2E0AC0FBD1F8A0F9B1FDC018C91C3
S11322208083C9012F5F3F4FB2E021303B0781F724
S11322305FC0319622E0E030F20741F6CC24AA24B4
S1132240D7018D919C9141E050E060E070E09E01E7
S11322502F5F3D4F0E94EB098823B9F100E010E0A5
S1132260BB24A801440F551F440F551F440F551F8D
S1132270401B510B4D5F5F4F662757FD6095762FCE
S1132280F701808191819E012F5F3F4F0E94730966
S11322908B818D1581F4C70169814D2D0E94021037
S11322A0B394BA1441F4D70112960C91129710E02A
S11322B00F5F1F4FBC2C0F5F1F4FF701828190E00F
S11322C08017910774F681E001C080E0C050DC4FB4
S11322D00FB6F894DEBF0FBECDBFDF91CF911F9133
S11322E00F91FF90EF90DF90CF90BF90AF90089543
S11322F0AC2CA6CF8F929F92AF92BF92CF92DF92D7
S1132300EF92FF920F931F93CF93DF93CDB7DEB776
S1132310C050D2400FB6F894DEBF0FBECDBF4C0103
S1132320062F5A01BE016F5F7F4F80E092E0FB01F0
S11323309C01119221503040E1F7C4010E94960B98
S113234080E090E080FD20C0E1E0F0E0EC0FFD1FB4
S1132350E80FF91F20812017B9F48C0F9D1FFC0191
S11323601281212F30E021503040C901880F991F7C
S1132370880F991F880F991F821B930B0296AA2717
S113238097FDA095BA2F08C00196F2E080309F0710
S1132390C9F680E090E0DC01F501C3802C2D2150CA
S11323A02730E8F4DD240894C108D108EE24D7FCD2
S11323B0E094FE2CC80ED91EEA1EFB1E118309E010
S11323C010E0F40180819181B701A60195010E947A
S11323D0EB09882331F40150104099F703C080E0E1
S11323E001C081E0C050DE4F0FB6F894DEBF0FBECF
S11323F0CDBFDF91CF911F910F91FF90EF90DF90B0
S1132400CF90BF90AF909F908F9008958F929F929E
S1132410AF92BF92CF92DF92EF92FF920F931F93EE
S1132420CF93DF93CDB7DEB7C050D2400FB6F89448
S1132430DEBF0FBECDBF5C01C62E042F4901BE0115
S11324406F5F7F4F80E092E0FB019C01119221506D
S11324503040E1F7C5010E94960B80E090E080FDDA
S11324601FC0E1E0F0E0EC0FFD1FE80FF91F208131
S11324702017B1F48C0F9D1FFC01228130E0215004
S11324803040C901880F991F880F991F880F991F21
S1132490821B930B0296AA2797FDA095BA2F08C01A
S11324A00196F2E080309F07D1F680E090E0DC01F5
S11324B02C2D21502730E0F4DD240894C108D108E4
S11324C0EE24D7FCE094FE2CC80ED91EEA1EFB1E97
S11324D009E010E0F50180819181B701A601940122
S11324E00E947309882331F40150104099F703C006
S11324F080E001C081E0C050DE4F0FB6F894DEBF2B
S11325000FBECDBFDF91CF911F910F91FF90EF9040
S1132510DF90CF90BF90AF909F908F9008956F926F
S11325207F928F929F92AF92BF92CF92DF92EF925F
S1132530FF920F931F93CF93DF93CDB7DEB7C050B5
S1132540D4400FB6F894DEBF0FBECDBF8C01C62EAB
S1132550642E722EBE016F5F7D4F0E94960BFE01AA
S1132560EF5FFD4F80E090E021912C15A1F4E1E0B4
S1132570F2E0EC0FFD1FE80FF91FC1806082F80143
S11325808081918140E050E0BA019E012F5F3D4F70
S11325900E94EB0907C0019622E08030920721F7E0
S11325A0CC24C394DD240894C108D1084601880CC6
S11325B0991C880C991C880C991CC4018C199D09C0
S11325C002964C01AA2497FCA094BA2CF8018081AD
S11325D09181B501A4019E012F5F3F4F0E947309B1
S11325E0CB80C801BE016F5F7D4F0E94B30D80E0B8
S11325F090E080FD16C0E1E0F2E0EC0FFD1FE80F73
S1132600F91F20812C1569F40196E1E0F2E0EC0F4A
S1132610FD1FE80FF91F2081222341F02150208360
S113262005C00196F2E080309F0719F780E090E042
S113263080FD20C0E1E0F2E0EC0FFD1FE80FF91F80
S113264020812715B9F40196E1E0F2E0EC0FFD1FBB
S1132650E80FF91F80818F5F8083F8018081918169
S113266041E050E060E070E09E012F5F3D4F0E942A
S1132670EB0919C00196F2E080309F07C9F6F80112
S11326808081918141E050E060E070E09E012F5F25
S11326903D4F0E94EB09C801672D0E948D0EC801B1
S11326A0672D0E94E80E0F2EF7E0CF2EF0E0DF2E0C
S11326B0F0E0EF2EF0E0FF2EF02DC80CD91CEA1C40
S11326C0FB1CF80180819181B501A4019E012F5F5B
S11326D03F4F0E94730969827B82F8018081918156
S11326E0B501A4019E012F5F3F4F0E94EB0908949E
S11326F0811C911CA11CB11C8C149D04AE04BF044C
S113270001F7C050DC4F0FB6F894DEBF0FBECDBF4B
S1132710DF91CF911F910F91FF90EF90DF90CF90B9
S1132720BF90AF909F908F907F906F900895FC0121
S1132730828108951F93CF93DF93EC01162F0296A5
S11327400E943915CE0142960E94EF161883198211
S11327508EEE95E89093A5008093A400DF91CF912D
S11327601F910895CF92DF92EF92FF920F931F93E0
S1132770CF93DF9300D0CDB7DEB77C01262F6A015B
S11327804296F7016081422F20E000E00E94A517E5
S1132790E1EAF0E080818560808387010E5F1F4F4E
S11327A010C0C89B0EC0C89AE1EAF0E080818A7F1D
S11327B080838EEE95E89093A5008093A40080E03A
S11327C034C0C8010E949116882359F7E1EAF0E069
S11327D080818A7F80838EEE95E89093A500809314
S11327E0A400802F912FBE016D5F7F4FAE014E5F1D
S11327F05F4F9E012F5F3F4F0E9479168981882386
S113280079F08B81813071F48A81882321F4F60177
S1132810108281E00AC0813039F4F601808305C05A
S113282080E003C080E001C080E00F900F900F9023
S1132830DF91CF911F910F91FF90EF90DF90CF9098
S11328400895EF92FF920F931F93CF93DF9300D0DD
S1132850CDB7DEB77C01262F042F4296F7016081A5
S1132860422F22E00E94A517E1EAF0E08081856012
S1132870808387010E5F1F4F10C0C89B0EC0C89A8B
S1132880E1EAF0E080818A7F80838EEE95E8909380
S1132890A5008093A40080E027C0C8010E9491167F
S11328A0882359F7E1EAF0E080818A7F80838EEE05
S11328B095E89093A5008093A400802F912FBE01EA
S11328C06D5F7F4FAE014E5F5F4F9E012F5F3F4FA5
S11328D00E9479168981882331F081E09B819530AB
S11328E019F080E001C080E00F900F900F90DF910D
S11328F0CF911F910F91FF90EF9008950F93FC01DA
S1132900062F4296608140E021E00E94A5170F91B6
S113291008950F93FC014296608140E025E000E0B9
S11329200E94A5170F910895EF92FF920F931F93A2
S1132930CF93DF9300D0CDB7DEB77C018C010E5F5F
S11329401F4FC8010E949116882389F1C801BE0156
S11329506D5F7F4FAE014E5F5F4F9E012F5F3F4F14
S11329600E9479168981882351F4C7014296F701A0
S1132970608140E02FE600E00E94A51718C08B811B
S1132980882331F4C701F70161810E947E140FC0CE
S1132990823021F4C7010E94891409C0C7014296FC
S11329A0F701608140E02FE601E00E94A5170F9037
S11329B00F900F90DF91CF911F910F91FF90EF90A7
S11329C0089508950F931F93CF93DF93EC018C0127
S11329D00E5E1F4FC8010E946117882321F0C801B1
S11329E00E94551804C0CE0102960E94A916DF91D8
S11329F0CF911F910F9108950F931F93CF93DF935E
S1132A00EC018C010E5E1F4FC8010E9461178823E0
S1132A1021F0C8010E94B61804C0CE0102960E949B
S1132A20CA16DF91CF911F910F91089542960E948B
S1132A304E17089502960E942315289A0895029627
S1132A400E949A160895FC01118210821382128248
S1132A501482158281E08683138617821686128675
S1132A60148617861586E1E9F0E080818D7F8083E6
S1132A700895FC0160874187E1E7F0E0208121604F
S1132A8020831092B2000E9423150895E1E9F0E03A
S1132A9080818260808388E893E19093950080939D
S1132AA09400089588E893E19093950080939400AE
S1132AB00895FC012481222361F070E080819181DA
S1132AC0880F991F682B792B718360832F3058F4FA
S1132AD007C070E080819181682B792B71836083BA
S1132AE02F5F248308952F5F24830895FC0125819B
S1132AF0222359F0862F90E062817381660F771F3D
S1132B00682B792B7383628307C070E08281938181
S1132B10682B792B73836283422F50E0838590E086
S1132B200896481759071CF42F5F258308952F5FD3
S1132B30258316820895FC0120813181408550E06F
S1132B40832F99278F7090704817590749F441854E
S1132B5050E0307081E04217530719F080E0089587
S1132B6080E00895FC01828187700895FC018385CB
S1132B70813049F482819381880F892F881F990BB2
S1132B80919581700895823049F482819381880FF0
S1132B90892F881F990B91958370089580E008957B
S1132BA0FC0181E0208131812E30310509F080E083
S1132BB0089581E0613009F480E00895FC014081CA
S1132BC0518180E090E060E09A01082E02C03695C1
S1132BD027950A94E2F721706227019680319105C6
S1132BE099F74281538180E090E09A01082E02C057
S1132BF0369527950A94E2F72170622701968C3066
S1132C00910599F781E0611180E008951F93CF93B6
S1132C10DF93EC01162F8F81882309F054C08E8135
S1132C208130E1F4CE010E9459158C81843049F43D
S1132C30CE010E94D015882309F042C081E08F8321
S1132C4042C08031E9F5CE010E949B15882319F01A
S1132C5082E08E8335C081E08F8335C08230F9F401
S1132C60CE010E9476158D81833051F5CE010E94EC
S1132C70B2158A87882321F0833011F0843011F44F
S1132C801B861EC0982F9150923018F481E08B87D8
S1132C9017C085508230A0F482E08B8711C088234E
S1132CA079F4E1E9F0E080818D7F8083CE010E9498
S1132CB0B6158C87CE010E94DE158D8781E08E8744
S1132CC08F81882391F02F9ACE01612F0E94D9150C
S1132CD0882331F08F858F5F8F87863018F405C085
S1132CE01F8603C0CE010E942315DF91CF911F914F
S1132CF00895FC018685882369F08285DB018C9325
S1132D008485DA018C938585D9018C93CF010E9447
S1132D1023150895FB011082DA011C92F901108237
S1132D200895FC0186850895E1EBF0E080818460DC
S1132D3080830895E1EBF0E080818B7F8083808144
S1132D408B7F808380818B7F80831092B200B89ABE
S1132D5008950F931F93CF93DF93EC010E94941671
S1132D6080E000E011E005C0CE0161E00E9406169B
S1132D7081E0B89907C0882329F4F801908196FF6F
S1132D80F8CFF2CFCE010E949A16DF91CF911F9116
S1132D900F910895FF920F931F93CF93DF93EC014C
S1132DA00E94941680E000E011E0FF24F39405C033
S1132DB0CE0160E00E9406168F2DB89907C08823C3
S1132DC029F4F801908196FFF8CFF2CFCE010E944A
S1132DD09A16DF91CF911F910F91FF900895FC01F6
S1132DE01182108213821282168214821582178233
S1132DF08EE08087E1E8F0E08081806180838081DB
S1132E00877F8083A0E8B0E08C918D7F8C938C9138
S1132E108E7F8C9380818B7F808380818D7F808364
S1132E2080818160808383E490E090938700809325
S1132E3086008C9180688C938C918F7B8C931092FC
S1132E40890010928800259A85B5877F85BD84B551
S1132E508D7F84BD84B58E7F84BD85B58B7F85BD14
S1132E6085B58D7F85BD85B58E7F85BDEEE6F0E0A9
S1132E7080818160808386E086BD089581E290E050
S1132E80909389008093880085B58B7F85BD85B537
S1132E90826085BD85B5816085BD089585B58B7FCC
S1132EA085BD85B58D7F85BD85B58E7F85BD86E065
S1132EB086BD10928900109288000895FC016783F2
S1132EC00895FC0187810895FC0180819181089512
S1132ED0FC01828193810895FC0186810895FC019F
S1132EE066830895FC018481815084830895FC01E4
S1132EF084810895FC018581815085830895FC01B6
S1132F0085810895FA0120E030E080E0AB01022ED3
S1132F1002C0569547950A94E2F7417084272F5FC3
S1132F203F4F2031310591F720E030E0AF01022E10
S1132F3002C0569547950A94E2F7417084272F5FA3
S1132F403F4F2430310591F70895EF92FF920F938C
S1132F501F93CF93DF9300D00F92CDB7DEB77C01E0
S1132F60342F1C821B821A8219824B815C81DC0102
S1132F701896EC911897F0E04E2B5F2B5C834B83F3
S1132F808B819C8182959295907F9827807F98274A
S1132F909C838B838B819C8170E0862B972B9C83F5
S1132FA08B838B819C81982F88279C838B838B8137
S1132FB09C81432F50E0842B952B9C838B838981A8
S1132FC09A81422F50E0842B952B9A838983222364
S1132FD061F1233061F1243061F1822F815082301C
S1132FE078F489819A81880F991F9A8389838981CA
S1132FF09A8110E0082B192B1A8309830AE01AC05E
S11330002550223008F046C089819A81880F991F83
S1133010880F991F9A83898389819A8110E0082BEC
S1133020192B1A8309830BE005C009E003C009E0EA
S113303001C009E089819A81880F991F9A83898345
S11330406B817C8149815A81C7010E948217298141
S11330503A8190E0282B392B3A83298389819A81FC
S11330600024969587950794969587950794982FAD
S1133070802D9A8389838B819C81F701918380833E
S113308089819A81938382838FE08483058381E09D
S1133090878386830F900F900F900F90DF91CF91CD
S11330A01F910F91FF90EF9008950F931F93CF936B
S11330B0DF93EC010E946117882309F452C0CE010A
S11330C00E946C17813021F5CE010E9464178C0197
S11330D0CE010E94771721E030E002C0220F331F97
S11330E08A95E2F70223132301151105D1F1CE01CC
S11330F00E943E17CE010E947717882321F0CE014B
S11331000E9472172EC0CE0162E00E946F1729C080
S1133110823039F5CE010E9468178C01CE010E94DD
S11331207F1721E030E002C0220F331F8A95E2F7B7
S11331300223132301151105A1F0CE010E943E17AD
S1133140CE010E947F17882321F0CE010E947A17B6
S113315008C0CE0160E00E945E17CE0160E00E94CC
S11331606F17DF91CF911F910F9108950F931F93C4
S1133170CF93DF93EC010E946117882309F458C0B0
S1133180CE010E946C17813039F5CE010E9464177C
S11331908C01CE010E94771721E030E0A90102C022
S11331A0440F551F8A95E2F7CA01009510958023B4
S11331B091230097E9F1CE010E943E17CE010E94AF
S11331C07717882321F0CE010E94721731C0CE01F7
S11331D062E00E946F172CC0823051F5CE010E942C
S11331E068178C01CE010E947F1721E030E0A9010D
S11331F002C0440F551F8A95E2F7CA010095109545
S1133200802391230097A1F0CE010E943E17CE01A6
S11332100E947F17882321F0CE010E947A1708C0EC
S1133220CE0160E00E945E17CE0160E00E946F173D
S1133230DF91CF911F910F910895991B79E004C0FC
S1133240991F961708F0961B881F7A95C9F78095E1
S11332500895A1E21A2EAA1BBB1BFD010DC0AA1FD3
S1133260BB1FEE1FFF1FA217B307E407F50720F0EB
S1133270A21BB30BE40BF50B661F771F881F991F66
S11332801A9469F760957095809590959B01AC01AF
S1133290BD01CF0108950790F691E02D1994FB012B
S11332A09F01E8944230C4F04532B4F44A3029F422
S11332B097FB1EF4909581959F4F642F77270E946A
S11332C08019805D8A330CF0895D8193CB0100976E
S11332D0A1F716F45DE251931082C9010C947019A0
S11332E0DC01FC01672F71917723E1F7329704C069
S11332F07C916D9370836291AE17BF07C8F30895F4
S1133300AA1BBB1B51E107C0AA1FBB1FA617B70707
S113331010F0A61BB70B881F991F5A95A9F7809523
S10F33209095BC01CD010895F894FFCFF6
S9030000FC
