S01300005043496E746572666163652E73726563ED
S11300000C9473000C94A6000C94A6000C94A60007
S11300100C94A6000C94A6000C94A6000C94A600C4
S11300200C94A6000C94A6000C94A6000C94A600B4
S11300300C94A6000C94A6000C94A6000C94A600A4
S11300400C94A6000C94A6000C94A6000C94A60094
S11300500C94A6000C94A6000C94A6000C94A60084
S11300600C94A6000C94F4000C94A6000C94A60026
S11300700C94A6000C94A6000C94A6000C94A60064
S11300800C94A6000C94A6000C94A6000C94A60054
S11300900C94A6000C94A6000C94A6000C94A60044
S11300A00C94A6000C94A6000C94A6000C94A60034
S11300B00C94A6000C94A6000C94A6000C94A60024
S11300C00C94A6000C94A6000C94A6000C94A60014
S11300D00C94A6000C94A6000C94A6000C94A60004
S11300E00C94A600230111241FBECFEFD1E2DEBF82
S11300F0CDBF00E00CBF12E0A0E0B2E0E8E0F4E223
S113010000E00BBF02C007900D92A030B107D9F7F1
S11301101BBE12E0A0E0B2E001C01D92AE30B107F8
S1130120E1F710E0C6EED0E000E006C02297010936
S1130130FE010BBF0E94B911C43ED10780E008073D
S1130140A9F71BBE0E94F2000C9402120C9400004A
S11301506623F1F081E04039580739F481E0809357
S1130160B90083E08093B80010C04436510539F4D7
S113017081E08093B90082E18093B80006C083E0F7
S11301808093B90084E18093B80084E08093BC003C
S1130190089584EA8093BC00ECEBF0E0808188232E
S11301A0ECF7089584E98093BC0008956093BB0044
S11301B084E88093BC00ECEBF0E080818823ECF7CA
S11301C00895662321F484EC8093BC0003C084E882
S11301D08093BC00ECEBF0E080818823ECF7809105
S11301E0BB0008957894FECF1F920F920FB60F9222
S11301F00BB60F9211242F933F934F935F936F93FA
S11302007F938F939F93AF93BF93EF93FF9380E07C
S113021092E00E94F4018DE092E06BEA0E943F09B3
S1130220FF91EF91BF91AF919F918F917F916F91CA
S11302305F914F913F912F910F900BBE0F900FBE86
S11302400F901F901895EF92FF920F931F93CF93E7
S1130250DF930F2EFDE0EF2EF2E0FF2EF02DC7010D
S113026040E051EE60E070E028E005E40E94E00820
S1130270CAE0D2E0CE0160EA7FE00E94770507E0A1
S113028012E0C801BE010E94820980E092E0B80138
S1130290A7010E945201DF91CF911F910F91FF900E
S11302A0EF900895FC015683458374836383089516
S11302B00F931F93CF93DF93EC018B018D819E816C
S11302C00E943709F80180838D819E810E9437093D
S11302D0F80181839081903F29F491E0803F19F0E7
S11302E090E001C090E0892FDF91CF911F910F9191
S11302F008951F93CF93DF93EC010E945801882344
S113030071F08D819E810E943709182F81508A30A7
S113031038F48D819E816FE00E943F0902C002C0C3
S113032010E0812FDF91CF911F910895AF92BF927A
S1130330CF92DF92EF92FF920F931F93CF936C01B2
S11303405B01FB0180E090E01192019622E0803095
S11303509207D1F700E010E0EE24FF24F601858136
S113036096810E943709C82FF601858196816FE036
S11303700E943F09CF3009F5F601858196810E94DC
S11303803709C82FF601858196816FE00E943F09E5
S1130390CF3019F48E2D9F2D1DC0F501E00FF11FF4
S11303A08FE080830F5F1F4FF501E00FF11FC083C3
S11303B082E090E0E80EF91E07C0F501E00FF11F9E
S11303C0C0830894E11CF11C0F5F1F4F92E00030C2
S11303D0190724F2CF911F910F91FF90EF90DF90B6
S11303E0CF90BF90AF9008955F926F927F928F925B
S11303F09F92AF92BF92CF92DF92EF92FF920F93B0
S11304001F93CF93DF93CDB7DEB7C250D6400FB65C
S1130410F894DEBF0FBECDBF6C018E010D5F1B4F84
S11304200F2EF3E0EF2EF6E0FF2EF02DEC0EFD1E66
S1130430F8011192EE15FF05E1F7C601BE016F5FE9
S11304407F4F0E947901873009F4A0C0883040F4BE
S11304508230A1F08630A9F0813009F029C10AC0A8
S1130460893009F4CFC0893008F4B7C08A3009F064
S11304701FC1E7C081E0F60180831AC1F601108232
S113048017C1F601838194810E948811582E882314
S113049009F463C0BB24B3949924702E612EF60131
S11304A083819481BE016D5F7D4F0E94870980E046
S11304B090E014C080FF12C0E3E0F2E0EC0FFD1FF7
S11304C0E80FF91F20812B1549F4282F2150E3E070
S11304D0F2E0EC0FFD1FE20FF11D90800196F2E0B7
S11304E080309F0739F7892CAA24A394F6018381CD
S11304F094816A2D482D9E012D5F3B4F0E94F70F7A
S1130500F6018581968160EF0E943F09F60185819D
S1130510968160EF0E943F09072D162DF801619125
S11305208F01F601858196810E943F09E016F1064C
S1130530A9F7F601858196816FE00E943F09F601D3
S1130540858196816FE00E943F09A394F8E0AF167D
S113055069F6B3945B1408F0A2CFF6018581968105
S11305606AEF0E943F09F601858196816AEF0E9435
S11305703F09F601858196816AEF0E943F09F601E1
S1130580858196816AEF0E943F0992C0C601BE012F
S11305906D5F7B4F0E9496018430910508F488C0FA
S11305A0CC5FDB4F4881C450D440442359F4F60156
S11305B083819481CD5FDB4F6881C350D4400E9416
S11305C0EB0A76C0F60183819481CD5FDB4F6881AD
S11305D0C350D4400E94240D6BC0C601BE016D5FA0
S11305E07B4F0E9496018130910509F061C0F601AC
S11305F083819481CD5FDB4F6881C350D4400E94D6
S1130600AF0B56C0C601BE016D5F7B4F0E949601C1
S11306108330910509F04CC0F60183819481CD5F4C
S1130620DB4F6881C350D440CC5FDB4F4881C4505A
S1130630D440CB5FDB4F2881C550D4400E9480104A
S113064037C0C601BE016D5F7B4F0E949601282F03
S1130650392F2115310561F1FE013396CE018D5FED
S11306609D4F1192E817F907E1F712161306BCF42F
S113067080E090E0181619061CF4582F5F5F01C043
S1130680582FF80141918F01E3E0F0E0EC0FFD1FDA
S1130690E50FF11D408301962817390759F7F60134
S11306A0838194816B81AE014D5F5F4F0E946B0F1C
S11306B0CE5FD94F0FB6F894DEBF0FBECDBFDF912A
S11306C0CF911F910F91FF90EF90DF90CF90BF904B
S11306D0AF909F908F907F906F905F9008951F933D
S11306E0CF93DF93EC01162F019661E00E94A800DE
S11306F01883DF91CF911F9108950F931F93CF9388
S1130700DF938C01EC012196CE010E94C900F8010F
S113071060816E7FCE010E94D600CE0163E00E940C
S1130720D600CE010E94D200CE010E94C900F80179
S113073060816160CE010E94D600CE0161E00E941A
S1130740E100082FCE010E94D200802F90E0DF91BB
S1130750CF911F910F910895862F6AE00E948B110B
S11307608295807F890F0895CF92DF92EF92FF9256
S11307700F931F93CF93DF937C01162FD42EC22E99
S1130780EC012196CE010E94C900F70160816E7FC1
S1130790CE010E94D600CE0163E00E94D600CE01B5
S11307A0602F0E94D600C701612F0E94AC03682FFE
S11307B0CE010E94D600C7016D2D0E94AC03682FA4
S11307C0CE010E94D600C7016C2D0E94AC03682F95
S11307D0CE010E94D600CE010E94D200DF91CF91BB
S11307E01F910F91FF90EF90DF90CF900895DF92CB
S11307F0EF92FF920F931F93CF93DF938C01F62E0A
S1130800D42EE22EEC012196CE010E94C900F801FB
S113081060816E7FCE010E94D600CE0160E00E940E
S1130820D600C8016E2D0E94AC03682FCE010E9431
S1130830D600C8016D2D0E94AC03682FCE010E9422
S1130840D600C8016F2D0E94AC03682F6064CE01EE
S11308500E94D600CE010E94D200DF91CF911F9159
S11308600F91FF90EF90DF900895262F2F706295DF
S11308706F70660F862F880F880F680F862F90E0A1
S1130880820F911D0895FF920F931F93CF93DF93CF
S11308908C01EC012196CE010E94C900F80160810F
S11308A06E7FCE010E94D600CE0166E00E94D60083
S11308B0CE010E94D200CE010E94C900F8016081DD
S11308C06160CE010E94D600CE0161E00E94E10089
S11308D0F82ECE010E94D200C8016F2D0E9435046B
S11308E0DF91CF911F910F91FF900895FF920F9385
S11308F01F93CF93DF938C01EC012196CE010E94CC
S1130900C900F80160816E7FCE010E94D600CE013D
S113091065E00E94D600CE010E94D200CE010E9462
S1130920C900F80160816160CE010E94D600CE0149
S113093061E00E94E100F82ECE010E94D200C801BD
S11309406F2D0E943504DF91CF911F910F91FF907D
S11309500895FF920F931F93CF93DF938C01EC01C3
S11309602196CE010E94C900F80160816E7FCE01FC
S11309700E94D600CE0164E00E94D600CE010E94FF
S1130980D200CE010E94C900F80160816160CE01ED
S11309900E94D600CE0161E00E94E100F82ECE0153
S11309A00E94D200C8016F2D0E943504DF91CF91BF
S11309B01F910F91FF900895FF920F931F93CF9370
S11309C0DF938C01EC012196CE010E94C900F8014D
S11309D060816E7FCE010E94D600CE0160E00E944D
S11309E0D600CE010E94D200CE010E94C900F801B7
S11309F060816160CE010E94D600CE0161E00E9458
S1130A00E100F82ECE010E94D200C8016F2D0E9491
S1130A103504DF91CF911F910F91FF900895FF92BC
S1130A200F931F93CF93DF938C01EC012196CE019A
S1130A300E94C900F80160816E7FCE010E94D60039
S1130A40CE0161E00E94D600CE010E94D200CE0108
S1130A500E94C900F80160816160CE010E94D60045
S1130A60CE0161E00E94E100F82ECE010E94D20086
S1130A70C8016F2D0E943504DF91CF911F910F9112
S1130A80FF900895EF92FF920F931F93CF937C01F1
S1130A908C010F5F1F4FC8010E94C900F7016081DC
S1130AA06E7FC8010E94D600C80162E00E94D60091
S1130AB0C8010E94D200C8010E94C900F7016081E8
S1130AC06160C8010E94D600C80161E00E94E10093
S1130AD0C82FC8010E94D2006C2F6F7BC7010E94EF
S1130AE03504CF911F910F91FF90EF9008950F93CC
S1130AF01F93CF93DF93EC018B016DE770E00E94AD
S1130B00CC081A830983DF91CF911F910F91089527
S1130B10EF92FF920F931F93CF93DF9300D00F9226
S1130B20CDB7DEB7182FE92EF62E29833A834B83EF
S1130B305C836FEF0E94D3086F2D6064812F9E2D1C
S1130B400E94D308812F9E2D69810E94D308812F92
S1130B509E2D6A810E94D308812F9E2D6C810E9454
S1130B60D308812F9E2D6D810E94D308812F9E2D45
S1130B70602F0E94D3080F900F900F900F90DF9179
S1130B80CF911F910F91FF90EF9008950E94D90883
S1130B9008950E94D3080895AF92BF92CF92DF9236
S1130BA0EF92FF920F931F93CF93DF9300D00F9296
S1130BB00F92CDB7DEB7B82EA92E83EF91E001973F
S1130BC0F1F700C0000083B1816085B9CB2CDA2C29
S1130BD08B2D9A2D6DE770E00E94A408E3EFF1E0FD
S1130BE03197F1F700C000008B2D9A2D6FEF0E9412
S1130BF0D3088B2D9A2D6FEF0E94D3088B2D9A2D3D
S1130C006FEF0E94D3088B2D9A2D6FEF0E94D308AB
S1130C108B2D9A2D6FEF0E94D3088B2D9A2D6FEF99
S1130C200E94D3088B2D9A2D6FEF0E94D3088B2D31
S1130C309A2D6FEF0E94D3088B2D9A2D6FEF0E948F
S1130C40D3088B2D9A2D6FEF0E94D30883B18E7F2A
S1130C5085B98C2D9D2D6FEF0E94D3088C2D9D2D71
S1130C6060E40E94D3088C2D9D2D60E00E94D3087F
S1130C708C2D9D2D60E00E94D3088C2D9D2D60E06D
S1130C800E94D3088C2D9D2D60E00E94D3088C2DEA
S1130C909D2D65E90E94D3088C2D9D2D0E94D908B5
S1130CA08C2D9D2D0E94D9088F3F81F2813009F04F
S1130CB0EEC08B2D9A2D6FEF0E94D3088B2D9A2DA9
S1130CC068E40E94D3088B2D9A2D60E00E94D3081B
S1130CD08B2D9A2D60E00E94D3088B2D9A2D61E014
S1130CE00E94D3088B2D9A2D6AEA0E94D3088B2D7B
S1130CF09A2D67E80E94D3088B2D9A2D0E94D9085B
S1130D008E010F5F1F4F0F2EF6E0EF2EFF24F02D04
S1130D10EC0EFD1E8C2D9D2D0E94D908F8018193A7
S1130D208F01EE15FF05B1F78981813009F0B1C05B
S1130D308A81882309F0AFC08B81882309F0ADC074
S1130D408C81813009F0ABC08D818A3A09F0A9C049
S1130D508C2D9D2D6FEF0E94D3088C2D9D2D67E760
S1130D600E94D3088C2D9D2D60E00E94D3088C2D09
S1130D709D2D60E00E94D3088C2D9D2D60E00E9483
S1130D80D3088C2D9D2D60E00E94D3088C2D9D2DC1
S1130D906FEF0E94D3088C2D9D2D0E94D9088C2DB5
S1130DA09D2D0E94D9088C2D9D2D6FEF0E94D30894
S1130DB08C2D9D2D69E60E94D3088C2D9D2D60E419
S1130DC00E94D3088C2D9D2D60E00E94D3088C2DA9
S1130DD09D2D60E00E94D3088C2D9D2D60E00E9423
S1130DE0D3088C2D9D2D6FEF0E94D3088C2D9D2D43
S1130DF00E94D9088C2D9D2D0E94D908882309F0C2
S1130E00A7CF8B2D9A2D6FEF0E94D3088B2D9A2D8F
S1130E106AE70E94D3088B2D9A2D60E00E94D308C4
S1130E208B2D9A2D60E00E94D3088B2D9A2D60E0C3
S1130E300E94D3088B2D9A2D60E00E94D3088B2D3D
S1130E409A2D6FEF0E94D3088B2D9A2D0E94D908FA
S1130E508B2D9A2D0E94D9088B2D9A2D0E94D9088A
S1130E60082F8B2D9A2D0E94D9088B2D9A2D0E9424
S1130E70D9088B2D9A2D0E94D90806FF14C08B2DFA
S1130E809A2D60EA7FE00E94A40881E00DC080E012
S1130E900BC080E009C080E007C080E005C080E0AE
S1130EA003C080E001C080E00F900F900F900F907E
S1130EB00F90DF91CF911F910F91FF90EF90DF90F2
S1130EC0CF90BF90AF900895AF92BF92CF92DF9230
S1130ED0EF92FF920F931F93CF93DF9300D00F9263
S1130EE0CDB7DEB7B82EA92E49835A836B837C8392
S1130EF0022F132FC82ED92E6FEF0E94D3088B2DEB
S1130F009A2D61E50E94D3088B2D9A2D6C810E9445
S1130F10D3088B2D9A2D6B810E94D3088B2D9A2D8B
S1130F206A810E94D3088B2D9A2D69810E94D3086F
S1130F308B2D9A2D6FEF0E94D3088B2D9A2D0E9432
S1130F40D9088B2D9A2D0E94D908882319F58C2D48
S1130F509D2D0E94D9088F3FD1F38E3FE9F4E02EF6
S1130F60F12E00E010E08C2D9D2D0E94D908F70190
S1130F7081937F010F5F1F4FF2E000301F0799F745
S1130F808B2D9A2D0E94D9088B2D9A2D0E94D90859
S1130F9081E003C080E001C080E00F900F900F90CB
S1130FA00F90DF91CF911F910F91FF90EF90DF9001
S1130FB0CF90BF90AF900895AF92BF92CF92DF923F
S1130FC0EF92FF920F931F93CF93DF9300D00F9272
S1130FD0CDB7DEB7B82EA92E49835A836B837C83A1
S1130FE0022F132FC82ED92E6FEF0E94D3088B2DFA
S1130FF09A2D68E50E94D3088B2D9A2D6C810E944E
S1131000D3088B2D9A2D6B810E94D3088B2D9A2D9A
S11310106A810E94D3088B2D9A2D69810E94D3087E
S11310208B2D9A2D6FEF0E94D3088B2D9A2D0E9441
S1131030D9088B2D9A2D0E94D908882309F070C0F5
S11310408B2D9A2D6FEF0E94D3088B2D9A2D6EEF66
S11310500E94D308E02EF12E00E010E0F701619128
S11310607F018C2D9D2D0E94D3080F5F1F4FF2E04E
S113107000301F0799F78B2D9A2D6FEF0E94D3082C
S11310808B2D9A2D6FEF0E94D3088C2D9D2D0E94DD
S1131090D9088823D1F3853E09F044C08B2D9A2DBD
S11310A00E94D9088C2D9D2D0E94D9088F3FD1F71D
S11310B08B2D9A2D6FEF0E94D3088B2D9A2D6DE402
S11310C00E94D3088B2D9A2D60E00E94D3088B2DAB
S11310D09A2D60E00E94D3088B2D9A2D60E00E9427
S11310E0D3088B2D9A2D60E00E94D3088B2D9A2D66
S11310F06FEF0E94D3088B2D9A2D0E94D9088B2D57
S11311009A2D0E94D908182F8B2D9A2D0E94D90848
S1131110982F112349F481E0992339F080E005C028
S113112080E003C080E001C080E00F900F900F903A
S11311300F90DF91CF911F910F91FF90EF90DF906F
S1131140CF90BF90AF9008956A3F7105C1F06B3F97
S1131150710524F46D377105D9F416C083E0683E37
S1131160780741F08FE0603A780791F48CB58C7F72
S11311708CBD08958CB58C7F81608CBD08958CB531
S11311808C7F82608CBD08958CB583608CBD08957E
S11311908CB58C7F8CBD089527E024B920E52CBD47
S11311A00E94A40808956EBD0DB407FEFDCF8EB550
S11311B008958FEF8EBD0DB407FEFDCF8EB5089553
S11311C00F93DB01CA018E569040A040B040833992
S11311D031EC930731E0A30730E0B30798F52930E9
S11311E088F5253078F180E28093C00088E9809307
S11311F0C1002550220F2093C200440F551F661FC3
S1131200771F440F551F661F771F9A01AB01220FEA
S1131210331F441F551F220F331F441F551F60E007
S113122074E284EF90E00E949711DA01C9010197FA
S1131230A109B1098093C400892F9A2FAB2FBB2732
S11312408093C500053431F4E2ECF0E080818062E3
S1131250808307C00F3429F4E2ECF0E080818063DE
S113126080830F9108958091C00080780895E0EC08
S1131270F0E080818823ECF78091C6000895E0ECCB
S1131280F0E0808185FFFDCF6093C60008950F9341
S11312901F93CF93DF938C01EB016881662339F0B0
S11312A02196C8010E943F0969916623D1F7DF9115
S11312B0CF911F910F9108950F931F93CF93DF93B5
S11312C0CDB7DEB727970FB6F894DEBF0FBECDBFFC
S11312D08C01CB01BE016F5F7F4F4AE050E00E945A
S11312E0BD11C801BE016F5F7F4F0E944709279659
S11312F00FB6F894DEBF0FBECDBFDF91CF911F9123
S11313000F910895FC0171836083128208959B01FB
S1131310FC018081918140E050E0BA010E946407A1
S113132008950F931F93CF93DF93CDB7DEB7C050CB
S1131330D2400FB6F894DEBF0FBECDBF8C01BE0104
S11313406F5F7F4F0E94870980E090E00FC080FFAD
S11313500DC0E1E0F0E0EC0FFD1FE80FF91FD8012C
S113136012963C9112972081321739F00196B2E01F
S113137080309B0761F781E001C080E0C050DE4F00
S11313800FB6F894DEBF0FBECDBFDF91CF911F9192
S11313900F910895EF92FF920F931F93CF93DF93D2
S11313A0CDB7DEB7C050D2400FB6F894DEBF0FBE43
S11313B0CDBF8C01F62EE42EBE016F5F7F4F0E94DD
S11313C08709FE01319680E090E02191222341F0CB
S11313D0019622E080309207C1F780E090E002C0DD
S11313E0009719F429812223B9F4E1E0F0E0EC0F2D
S11313F0FD1FE80FF91FF0828C0F9D1FFC01E28294
S1131400F8018081918140E050E0BA019E012F5F94
S11314103F4F0E94DC0701C080E0C050DE4F0FB692
S1131420F894DEBF0FBECDBFDF91CF911F910F9116
S1131430FF90EF900895DF92EF92FF920F931F9326
S1131440CF93DF93CDB7DEB7C050D4400FB6F89436
S1131450DEBF0FBECDBF7C01162FBE016F5F7D4F77
S113146080E092E0FB019C01119221503040E1F7B1
S1131470C7010E94870960E070E060FD09C0E1E0F7
S1131480F2E0EC0FFD1FE60FF71F8081811739F0A2
S11314906F5F7F4F32E06030730779F760E0AE0131
S11314A04F5F5F4F80E092E0FA019C01119221505E
S11314B03040E1F7DE01AF5FBD4F22E030E080E075
S11314C090E070E011E000E0E1E02F3F3E07E4F43B
S11314D0E12F6817790709F0E02FEE2339F4E12FA3
S11314E0681779070CF0E02FEE2351F0E1E0F2E009
S11314F0EC0FFD1FE20FF31FD080FA01D08205C06C
S1131500DC90FA01D08201C01C9201962F5F3F4FFC
S113151011964F5F5F4FF2E080309F07A9F6F70105
S11315208081918140E050E0BA019E012F5F3F4FDE
S11315300E94DC07C050DC4F0FB6F894DEBF0FBE2C
S1131540CDBFDF91CF911F910F91FF90EF90DF906E
S113155008950F931F93CF93DF93CDB7DEB7C05099
S1131560D2400FB6F894DEBF0FBECDBF8C01BE01D2
S11315706F5F7F4F0E948709F80162816623D1F46F
S11315801EC020FF0DC0E1E0F0E0EC0FFD1FE20FF4
S1131590F31F9081981751F0F1E02F3F3F0779F046
S11315A02F5F3F4F92E02030390759F78F5F68175C
S11315B020F405C081E041E050E09A01E2CFC05040
S11315C0DE4F0FB6F894DEBF0FBECDBFDF91CF91D3
S11315D01F910F910895BF92CF92DF92EF92FF92E5
S11315E00F931F93CF93DF93CDB7DEB7C050D24094
S11315F00FB6F894DEBF0FBECDBF6C01E62EDC0142
S113160012968C9112978F5F12968C93C6010E944A
S11316109109882309F446C0FE01319680E092E0E6
S1131620DF019C011D9221503040E1F7E982D6018F
S113163012968C918A8301E010E00C83F60182817A
S113164090E00197AC01440F551F440F551F440F00
S1131650551F481B590B400F511F4F5F5F4F6627A3
S113166057FD6095762F808191819E012F5F3F4FBA
S11316700E94DC07882351F4D60112968C911297AC
S1131680815012968C93129780E04DC00F5F1F4FCC
S11316900830110591F6C6016E2DF60142810E94B3
S11316A0CA0941C0C6010E94A90AB82EFE0131969A
S11316B080E092E0DF019C011D9221503040E1F76F
S11316C0E982BA828B2D90E001978C01000F111FE3
S11316D0000F111F000F111F081B190B0E5F1F4F66
S11316E0FF24F394FC82A801662757FD6095762FAA
S11316F0D6018D919C919E012F5F3F4F0E94DC0784
S1131700882331F4F60182818150828380E00BC00A
S1131710F3940F5F1F4FF8E0FF1621F7C6016E2DFB
S11317204B2D0E94CA09C050DE4F0FB6F894DEBF9D
S11317300FBECDBFDF91CF911F910F91FF90EF901E
S1131740DF90CF90BF9008959B01FC01808191812F
S113175041E050E060E070E00E9464070895CF9299
S1131760DF92EF92FF920F931F93CF93DF93CDB746
S1131770DEB7C050D8400FB6F894DEBF0FBECDBF61
S11317806C01F62E80E092E0FE01EF5FF94FDF017D
S11317909C011D9221503040E1F7BE016F5F7B4FE9
S11317A0DB01FC011D923197E9F7FE01EF5FFD4F6C
S11317B0DF019C011D9221503040E1F7C6010E94D7
S11317C087098F2D8150382F330F330F330F381B78
S11317D080E090E03E5F0CC080FF0AC0E1E0F4E0EE
S11317E0EC0FFD1FE80FF91F20812F1509F4E32EDC
S11317F00196A2E080309A0779F74E2D50E060E020
S113180070E0F601808191819E012F5F3D4F0E941F
S11318106407CD5FDD4F8881C350D240882311F423
S113182000E03DC0BE016F5F7F4F80E092E0DB01CE
S1131830FC011D923197E9F7C6010E94A40B00E058
S113184010E000FD25C0E1E0F0E0EC0FFD1FE00F2B
S1131850F11F9081CD5FDD4F8881C350D24098172E
S1131860B9F4802F8F5FE1E0F0E0EC0FFD1FE80F8B
S1131870F11D808181508083D6018D919C9141E03E
S113188050E060E070E09E012F5F3F4F0E94DC0754
S11318900F5F1F4FB2E000301B0799F6C1CF402FF6
S11318A04E0D50E060E070E0F601808191819E0170
S11318B02F5F394F0E94DC07882379F00F5F0730D0
S11318C071F7D60112968C911297815012968C93CF
S11318D0C6016F2D0E941B0A01C080E0C050D84F82
S11318E00FB6F894DEBF0FBECDBFDF91CF911F912D
S11318F00F91FF90EF90DF90CF900895FF920F9398
S11319001F93CF93DF93CDB7DEB7C050D2400FB64D
S1131910F894DEBF0FBECDBF8C01F62EBE016F5F03
S11319207F4F80E092E0FB019C01119221503040F6
S1131930E1F7C8010E94A40B80E090E080FD09C09B
S1131940E1E0F0E0EC0FFD1FE80FF91F20812223F6
S113195041F0019632E08030930781F780E090E017
S113196002C0009719F429812223A9F4E1E0F0E0F0
S1131970EC0FFD1F8E0F9F1FFC01F082F801808188
S1131980918141E050E060E070E09E012F5F3F4FA5
S11319900E94DC0701C080E0C050DE4F0FB6F8940F
S11319A0DEBF0FBECDBFDF91CF911F910F91FF908E
S11319B00895EF92FF921F93CF93DF93CDB7DEB7D5
S11319C0C050D2400FB6F894DEBF0FBECDBF7C012D
S11319D0162FBE016F5F7F4F0E94A40B80E090E042
S11319E080FD14C0E1E0F0E0EC0FFD1FE80FF91FEB
S11319F02081211759F4282F2F5FE1E0F0E0EC0F4C
S1131A00FD1FE20FF11D20812F5F2083019622E04C
S1131A108030920729F7F7018081918141E050E0FD
S1131A2060E070E09E012F5F3F4F0E94DC07C050D2
S1131A30DE4F0FB6F894DEBF0FBECDBFDF91CF915E
S1131A401F91FF90EF900895AF92BF92CF92DF92D3
S1131A50EF92FF920F931F93CF93DF93CDB7DEB72F
S1131A60C050D2400FB6F894DEBF0FBECDBF6C019C
S1131A70B62EE42EDC0112968C9112978F5F12968B
S1131A808C93C6010E949109882309F44EC0FE017B
S1131A90319680E092E0DF019C011D92215030409C
S1131AA0E1F7B982D60112968C918A83EB8201E028
S1131AB010E00C83F601828190E00197AC01440FA1
S1131AC0551F440F551F440F551F481B590B400FFA
S1131AD0511F4F5F5F4F662757FD6095762F8081BA
S1131AE091819E012F5F3F4F0E94DC07882351F4B0
S1131AF0D60112968C911297815012968C9312975C
S1131B0080E05FC00F5F1F4F0830110591F6C601DA
S1131B106E2D0E94D90C882309F450C0C6016B2D88
S1131B20F60142810E94CA094CC0C6010E94A90A5A
S1131B30A82EFE01319680E092E0DF019C011D9207
S1131B4021503040E1F7B982AA82EB828A2D90E0DD
S1131B5001978C01000F111F000F111F000F111F9F
S1131B60081B190B0E5F1F4FFF24F394FC82A8017E
S1131B70662757FD6095762FD6018D919C919E0125
S1131B802F5F3F4F0E94DC07882331F4F6018281E6
S1131B908150828380E015C0F3940F5F1F4FF8E0FB
S1131BA0FF1621F7C6016E2D0E94D90C882341F03F
S1131BB0C6016B2D4A2D0E94CA0903C080E001C0F2
S1131BC080E0C050DE4F0FB6F894DEBF0FBECDBF2D
S1131BD0DF91CF911F910F91FF90EF90DF90CF9005
S1131BE0BF90AF9008958F929F92AF92BF92CF9281
S1131BF0DF92EF92FF920F931F93CF93DF93CDB7B2
S1131C00DEB7C050D6400FB6F894DEBF0FBECDBFCE
S1131C105C01C62E042FBE016F5F7B4F80E092E013
S1131C20DB01FC011D923197E9F7C5010E94A40B69
S1131C3080E090E080FD12C0E1E0F4E0EC0FFD1FD5
S1131C40E80FF91F2081201749F48C0F9D1FFC0118
S1131C50EE5FFB4F80818150808305C00196F2E0E6
S1131C6080309F0739F7D5018D919C9141E050E078
S1131C7060E070E09E012F5F3B4F0E94DC078823E9
S1131C8009F45CC0BE016F5F7D4F80E092E0FB0110
S1131C909C01119221503040E1F7C5010E9487094F
S1131CA080E090E080FD13C0E1E0F2E0EC0FFD1F66
S1131CB0E80FF91F20812C1551F481818150882E61
S1131CC0880C880C880C881A282D2E5F06C0019673
S1131CD0B2E080309B0731F720E0FE01319680E0CE
S1131CE092E0DF01AC011D9241505040E1F700E069
S1131CF010E0822E99246801C80CD91CEE24D7FC6C
S1131D00E094FE2CD5018D919C91B701A6019E0112
S1131D102F5F3F4F0E9464071B82F50180819181F0
S1131D20B701A6019E012F5F3F4F0E94DC070F5FA2
S1131D301F4F07301105F9F681E001C080E0C05063
S1131D40DA4F0FB6F894DEBF0FBECDBFDF91CF914F
S1131D501F910F91FF90EF90DF90CF90BF90AF90C5
S1131D609F908F900895AF92BF92CF92DF92EF929F
S1131D70FF920F931F93CF93DF93CDB7DEB7C0507D
S1131D80D4400FB6F894DEBF0FBECDBF7C01D62E73
S1131D90BE016F5F7D4F80E092E0DB01FC011D928C
S1131DA03197E9F7C7010E94A40BE0E0F0E0E0FD01
S1131DB031C0A1E0B2E0AC0FBD1FAE0FBF1F8C91CC
S1131DC0D81641F5DE01AE0FBF1FAE5FBD4FCC90FC
S1131DD01C92CF01029622E0803092070CF079C069
S1131DE09F012D5F3F4F41E052E04C0F5D1FE40F18
S1131DF0F51FA1E0B2E0AC0FBD1F8A0F9B1FDC01F1
S1131E008C918083C9012F5F3F4FB2E021303B07A3
S1131E1081F75FC0319622E0E030F20741F6CC242E
S1131E20AA24D7018D919C9141E050E060E070E0DC
S1131E309E012F5F3D4F0E94DC078823B9F100E02B
S1131E4010E0BB24A801440F551F440F551F440F35
S1131E50551F401B510B4D5F5F4F662757FD609523
S1131E60762FF701808191819E012F5F3F4F0E9461
S1131E7064078B818D1581F4C70169814D2D0E9402
S1131E80F30DB394BA1441F4D70112960C9112973E
S1131E9010E00F5F1F4FBC2C0F5F1F4FF7018281B3
S1131EA090E08017910774F681E001C080E0C05093
S1131EB0DC4F0FB6F894DEBF0FBECDBFDF91CF91DC
S1131EC01F910F91FF90EF90DF90CF90BF90AF9054
S1131ED00895AC2CA6CF8F929F92AF92BF92CF92CF
S1131EE0DF92EF92FF920F931F93CF93DF93CDB7BF
S1131EF0DEB7C050D2400FB6F894DEBF0FBECDBFE0
S1131F004C01062F5A01BE016F5F7F4F80E092E0C3
S1131F10FB019C01119221503040E1F7C4010E9461
S1131F20870980E090E080FD20C0E1E0F0E0EC0F64
S1131F30FD1FE80FF91F20812017B9F48C0F9D1F96
S1131F40FC011281212F30E021503040C901880F5B
S1131F50991F880F991F880F991F821B930B029654
S1131F60AA2797FDA095BA2F08C00196F2E0803009
S1131F709F07C9F680E090E0DC01F501C3802C2DB9
S1131F8021502730E8F4DD240894C108D108EE2458
S1131F90D7FCE094FE2CC80ED91EEA1EFB1E11834A
S1131FA009E010E0F40180819181B701A601950157
S1131FB00E94DC07882331F40150104099F703C0D4
S1131FC080E001C081E0C050DE4F0FB6F894DEBF60
S1131FD00FBECDBFDF91CF911F910F91FF90EF9076
S1131FE0DF90CF90BF90AF909F908F9008958F9285
S1131FF09F92AF92BF92CF92DF92EF92FF920F9394
S11320001F93CF93DF93CDB7DEB7C050D2400FB646
S1132010F894DEBF0FBECDBF5C01C62E042F49016C
S1132020BE016F5F7F4F80E092E0FB019C01119243
S113203021503040E1F7C5010E94870980E090E01B
S113204080FD1FC0E1E0F0E0EC0FFD1FE80FF91F79
S113205020812017B1F48C0F9D1FFC01228130E0F8
S113206021503040C901880F991F880F991F880F8C
S1132070991F821B930B0296AA2797FDA095BA2F4E
S113208008C00196F2E080309F07D1F680E090E02E
S1132090DC012C2D21502730E0F4DD240894C10804
S11320A0D108EE24D7FCE094FE2CC80ED91EEA1EFB
S11320B0FB1E09E010E0F50180819181B701A601C2
S11320C094010E946407882331F40150104099F769
S11320D003C080E001C081E0C050DE4F0FB6F89429
S11320E0DEBF0FBECDBFDF91CF911F910F91FF9047
S11320F0EF90DF90CF90BF90AF909F908F90089516
S11321006F927F928F929F92AF92BF92CF92DF9203
S1132110EF92FF920F931F93CF93DF93CDB7DEB768
S1132120C050D4400FB6F894DEBF0FBECDBF8C01B3
S1132130C62E642E722EBE016F5F7D4F0E948709EA
S1132140FE01EF5FFD4F80E090E021912C15A1F49A
S1132150E1E0F2E0EC0FFD1FE80FF91FC18060829F
S1132160F8018081918140E050E0BA019E012F5F27
S11321703D4F0E94DC0707C0019622E080309207A1
S113218021F7CC24C394DD240894C108D108460166
S1132190880C991C880C991C880C991CC4018C19F6
S11321A09D0902964C01AA2497FCA094BA2CF8012C
S11321B080819181B501A4019E012F5F3F4F0E9450
S11321C06407CB80C801BE016F5F7D4F0E94A40BE2
S11321D080E090E080FD16C0E1E0F2E0EC0FFD1F2E
S11321E0E80FF91F20812C1569F40196E1E0F2E073
S11321F0EC0FFD1FE80FF91F2081222341F021502D
S1132200208305C00196F2E080309F0719F780E033
S113221090E080FD20C0E1E0F2E0EC0FFD1FE80F4C
S1132220F91F20812715B9F40196E1E0F2E0EC0FE3
S1132230FD1FE80FF91F80818F5F8083F801808183
S1132240918141E050E060E070E09E012F5F3D4FDE
S11322500E94DC0719C00196F2E080309F07C9F69E
S1132260F8018081918141E050E060E070E09E01DE
S11322702F5F3D4F0E94DC07C801672D0E947E0C32
S1132280C801672D0E94D90C0F2EF7E0CF2EF0E085
S1132290DF2EF0E0EF2EF0E0FF2EF02DC80CD91C5D
S11322A0EA1CFB1CF80180819181B501A4019E0107
S11322B02F5F3F4F0E94640769827B82F80180810F
S11322C09181B501A4019E012F5F3F4F0E94DC075D
S11322D00894811C911CA11CB11C8C149D04AE0497
S11322E0BF0401F7C050DC4F0FB6F894DEBF0FBE39
S11322F0CDBFDF91CF911F910F91FF90EF90DF90B1
S1132300CF90BF90AF909F908F907F906F900895E3
S1132310FC0182810895991B79E004C0991F9617E6
S113232008F0961B881F7A95C9F780950895A1E255
S11323301A2EAA1BBB1BFD010DC0AA1FBB1FEE1F3B
S1132340FF1FA217B307E407F50720F0A21BB30B86
S1132350E40BF50B661F771F881F991F1A9469F702
S113236060957095809590959B01AC01BD01CF015E
S113237008950790F691E02D1994FB019F01E894CC
S11323804230C4F04532B4F44A3029F497FB1EF4C9
S1132390909581959F4F642F77270E94EE11805D61
S11323A08A330CF0895D8193CB010097A1F716F471
S11323B05DE251931082C9010C94DE11DC01FC0131
S11323C0672F71917723E1F7329704C07C916D9365
S11323D070836291AE17BF07C8F30895AA1BBB1B95
S11323E051E107C0AA1FBB1FA617B70710F0A61B11
S11323F0B70B881F991F5A95A9F780959095BC0132
S10B2400CD010895F894FFCF0B
S9030000FC
